:020000040800F2
:1000000098640020E5020008FB440008713B0008EA
:10001000F94400086D1F0008974800080000000020
:100020000000000000000000000000008F450008F4
:1000300021200008000000008D45000891450008BF
:10004000FF020008FF020008FF020008FF0200088C
:10005000FF020008FF020008FF020008FF0200087C
:10006000FF020008FF020008FF020008FF0200086C
:10007000FF020008FF020008FF020008FF0200085C
:10008000FF020008FF020008391E000800000000FF
:10009000000000000000000000000000FF02000857
:1000A000FF020008FF020008FF020008FF0200082C
:1000B000FF020008FF020008FF020008FF0200081C
:1000C000FF020008FF020008FF020008FF0200080C
:1000D000FF020008FF020008FF0200080000000005
:1000E000FF020008FF020008FF02000800000000F5
:1000F000000000000000000000000000FF020008F7
:1001000000000000FF020008FF020008FF020008D4
:1001100000000000000000000000000000000000DF
:10012000711F0008FF020008FF020008FF0200081C
:10013000FF020008000000000000000000000000B6
:10014000000000000000000000000000FF020008A6
:10015000FF020008FF020008FF020008FF0200087B
:10016000FF020008FF02000800000000000000007D
:10017000000000000000000000000000000000007F
:1001800000000000FF020008000000000000000066
:10019000FF020008FF02000800F002F800F092F8E9
:1001A0000AA090E8000C82448344AAF10107DA45D2
:1001B00001D100F087F8AFF2090EBAE80F0013F092
:1001C000010F18BFFB1A43F0010318472054000029
:1001D00040540000103A24BF78C878C1FAD85207BA
:1001E00024BF30C830C144BF04680C6070470000B1
:1001F0000023002400250026103A28BF78C1FBD830
:10020000520728BF30C148BF0B6070476E2900F00D
:100210003B82702900F07D83662905F044816529C1
:1002200005F04181672905F03E81612905F03D8196
:1002300003681B0A28BF41F08001692900F0E881AA
:10024000642900F0E581752900F0E2816F2900F052
:100250000A83782900F04983E92900F0A582E4297E
:1002600000F0A282F52900F09F82EF2900F00783B9
:10027000F82900F048830368DB0928BF41F08001BA
:10028000632901F04F80732901F05480E32901F0C4
:100290005F80F32901F06480002070471FB505F0EE
:1002A000F8F801F0B3F804000020002104F078FE13
:1002B000401C60600020002104F05CFEE0601FBD77
:1002C00010B510BD01F074F81146FFF7E7FF04F018
:1002D000B5FC01F051F903B4FFF7F2FF03BC01F0E4
:1002E00095F900000948804709480047FEE7FEE706
:1002F000FEE7FEE7FEE7FEE7FEE7FEE7FEE7FEE7D6
:1003000004480549054A064B704700002546000889
:100310009901000898040020986400209824002087
:100320009824002053EA020C00F069802DE9F04B7C
:100330004FF00006002B1FBFB3FA83F503FA05F454
:1003400024FA05F65E4012BF1643B2FA82F502FAAD
:1003500005F4C5F120051EBF22FA05FC44EA0C0491
:10036000203556EA044C4FEA144418BF641C4FF081
:1003700000084FF00009904271EB030C39D30029BB
:1003800019BFB1FA81F701FA07F6B0FA80F700FA5F
:1003900007F6C7F120071EBF20FA07FC46EA0C0645
:1003A0002037B6FBF4FCA7EB0507103F07F01F0B47
:1003B000CBF120060CFA0BFB2CFA06F644BFB34631
:1003C0000026202FA4BF5E464FF0000B5BEA060C10
:1003D00008BF4FF0010B19EB0B09ABFB027C48EB9C
:1003E0000608C01B06FB02CC0BFB03CC71EB0C0117
:1003F000C1E70B46024641464846BDE8F08B13B5BF
:100400004FF000004FF00001AFF30080BDE81C404A
:10041000704700000FB41CB5084B06AA7B44694620
:100420000090059800F049F904460020694600F064
:1004300057F920461CBC5DF814FB0000C102000007
:1004400010B5431C02E010F8011B71B18107FAD10D
:100450004FF0013202C88C1A8C4314EAC211F9D051
:10046000C01A0A0603D0C01E10BDC01A10BD0A046F
:1004700001D0801E10BD0902FCD0401E10BD10B579
:10048000203AC0F00B80B1E81850203AA0E818508C
:10049000B1E81850A0E81850BFF4F5AF5FEA027C4D
:1004A00024BFB1E81850A0E8185044BF18C918C0BC
:1004B000BDE810405FEA827C24BF51F8043B40F85D
:1004C000043B08BF7047D20728BF31F8023B48BF42
:1004D00011F8012B28BF20F8023B48BF00F8012B80
:1004E00070474FF0000200B51346944696462039F7
:1004F00022BFA0E80C50A0E80C50B1F12001BFF4DD
:10050000F7AF090728BFA0E80C5048BF0CC05DF842
:1005100004EB890028BF40F8042B08BF704748BF90
:1005200020F8022B11F0804F18BF00F8012B704704
:1005300070477047704710B500F0BAFA006810BDF8
:1005400010B5044600F0B4FA046010BD70B504465E
:1005500085690068C10601D5302600E02026C00765
:1005600007D070BDD4E9012130469047206A401C75
:1005700020626D1EF6D570BD70B5044685690078A1
:10058000C00707D170BDD4E9012120209047206A1F
:10059000401C20626D1EF6D570BD09684A0501D564
:1005A00040B27047C905FCD500B2704709684A05DA
:1005B00001D5C0B27047C905FCD580B2704770B58F
:1005C0000C460546012A05D02878800600D5EA6940
:1005D000002302E0012305E05B1C934202D2E05CB1
:1005E0000028F9D1A869E618C01AA861286A184439
:1005F00028622846FFF7AAFF04E0D5E9012114F894
:10060000010B9047B442F8D32846FFF7B5FF70BD01
:100610002DE9F0410646002410687529314616A5DB
:1006200010D0FFF7BAFF002802DA404213A507E016
:1006300031688A0701D512A502E0490704D511A542
:10064000012401E0FFF7B2FF00210A2206F124078E
:1006500009E0B0FBF2FCB0FBF2F302FB1C0030300F
:1006600078541846491C0028F3D123462A463046C0
:10067000BDE8F04100F065BA000000002D00000068
:100680002B0000002000000011680268006A53057A
:1006900001D508700AE0D30501D5088006E01306ED
:1006A00003D5C217C1E9000200E0086001207047CD
:1006B00001694A1C02610878704700B58FB0CDE926
:1006C00001310021059105497944CDE90310114616
:1006D000684600F029F90FB000BD0000E5FFFFFFFC
:1006E0000A6802F8010B0A60704700002DE9FF5FFD
:1006F00015468A460446DFF8AC80F8440027D8E95E
:1007000000103E46CDE9001010E03AF816106A4697
:1007100002A800F029FE411C07D02178890603D5E4
:10072000E269391891420DD80744761C207880067A
:1007300002D5E069B84205DDAE42E6DB3AF81600C4
:100740000028E2D1A069C01BA0612046FFF7FEFE91
:10075000D8E90010CDE90010002017E03AF8181091
:100760006A4602A800F000FEB0F1FF3F81460BD0C0
:1007700000250DF1080B05E0D4E901211BF8050067
:1007800090476D1C4D45F7D308F10100B0428046FB
:10079000E4DB206A384420622046FFF7EDFEBDE826
:1007A000FF9F0000F24D00002DE9F0418046D21D70
:1007B00022F007020025D2E90002F52915A614D07F
:1007C000011E72F1000106DA0023D0EB030063EB97
:1007D000020211A608E0D8F800108B0701D50FA679
:1007E00002E0490701D50EA601251146002408F1B3
:1007F000240704E000F060F930323A55641C50EAF6
:100800000102F7D12B46324621464046BDE8F04171
:1008100000F097B9000000002D0000002B00000040
:100820002000000030B4002100F1240408E002F0B0
:100830000705D208303542EA4372DB086554491C8B
:1008400052EA0305F3D10468002310A2250707D557
:10085000A40600D421B1C46901230DA2641EC461A1
:1008600030BC00F06EB910B5044621461068FFF7A1
:100870009DFE02462046BDE810400023D2E7D21D6F
:1008800022F00701D1E90023CCE7000000000000BE
:1008900030000000F0B40D460188090502D5214C56
:1008A0007C4402E01F4C7C440E34002100F12406FD
:1008B00008E002F00F071209E75D42EA03721B0924
:1008C0007754491C52EA0307F3D102780023120738
:1008D00004D5702D06D009B1022311342246F0BC94
:1008E00000F02FB901231034F8E770B504460D4627
:1008F00021461068FFF75AFE024629462046BDE809
:1009000070400023C6E7D21D22F00703D3E900237D
:10091000C0E70368126843F0200303600823C36143
:100920000023B7E7544C00002DE9F05F89460446E8
:100930004FF0000ADFF874B1FB44C0F820A0204655
:10094000E1688847002874D0252806D0D4E9012121
:100950009047206A401C2062F1E700265F4620464F
:10096000E16888472028054607DB312D05D2781934
:1009700010F8200C08B10643F1E7B00701D526F0C6
:100980000406C4F81CA00027C4F818A02A2D09D01A
:10099000284604F01FF938B304EB8708303DC8F847
:1009A000185019E059F8041B204604EB87029161A6
:1009B000E1688847012F054618D1E069002820DA50
:1009C00026F020061DE0D8F8180000EB800005EBAB
:1009D00040003038C8F818002046E16888470546CE
:1009E00004F0F8F80028EED1012F0AD02E2D08D1FE
:1009F0002046E16888477F1C0546022F46F0200606
:100A0000C4DBA069002803DA404246F00106A06179
:100A1000F00701D026F010066C2D0BD0682D09D000
:100A20004C2D39D06A2D35D0742D35D07A2D33D058
:100A300016E038E0E1682F4620468847B842054670
:100A400009D16C2F26D04FF48060E1680643204620
:100A50008847054604E06C2F1AD04FF48070064397
:100A60000DB3A5F14100192802D8203546F40066DF
:100A70004A462946204626604E46FFF7C7FB80B10E
:100A800001280BD0F61D26F0070000F1080956E7F3
:100A90004020E4E78020D8E70020D6E706F10409EB
:100AA0004DE7284652E7206ABDE8F09FE44B00007E
:100AB000004870473804002030B5B0F10A024FEA10
:100AC000900E71F100034EEA817EB0EB0E0061EBF7
:100AD00091014FEA101E4EEA017E10EB0E0041EB31
:100AE00011114FEA102E4EEA016E10EB0E0041EB91
:100AF00011214FEA104E4EEA014E10EB0E0041EB71
:100B00001141401841F100014FEAD00040EA417024
:100B10004FEAD10110EB80054FEA810444EA90745A
:100B200044EB01046D1944EB0404521BA3414FF044
:100B3000000348BF0A3200D530BD401C41F100011E
:100B400030BD2DE9F0470D4699469246044600F126
:100B500024080168880604D5E06921F010012160AD
:100B600000E00120A84201DD471B00E00027A16949
:100B70007A1902EB0900081AA0612078C00602D495
:100B80002046FFF7E3FC002608E0D4E901211AF82B
:100B900006009047206A401C761C20624E45F4DB1C
:100BA0002078C0060AD52046FFF7D0FC06E0D4E93D
:100BB000012130209047206A401C2062381EA7F196
:100BC0000107F4DC07E0D4E9012118F8050090479B
:100BD000206A401C2062281EA5F10105F3DC204696
:100BE000FFF7CAFC2078000602D50220BDE8F08796
:100BF0000120FBE770472DE9FF4F0C461E464FF0E2
:100C0000FF378BB0D2E90001DDF860800A908A4698
:100C1000C1F30A5505B93D46002108464FF00000D2
:100C2000BAF1000F00F4400005DA00EB80004FF449
:100C3000400101EA50004FEA9059B9F1010F00DD7F
:100C4000B9460A9850EA4A000ED044F61050A5F270
:100C5000FF3545432F14B8F1000F1ED07542291EF1
:100C60001EDDC9F100021CE0B8F1010F4FF00000D9
:100C700001D0302103E0F24305E02154401CB04292
:100C8000FBDB30460022002121540B99C1F808807B
:100C9000C1E900200FB0BDE8F08FBD1B6D1CDEE781
:100CA0004A4600DA694206A800F0F4FB06AB93E876
:100CB000070003AB83E8070050460A9900F0ADFC3B
:100CC0008DE80700A0F500501F3800900398002D14
:100CD0000ADD42F21F014A460844002303A903909B
:100CE000684600F016FF09E0A0F500504A461F389C
:100CF000002303A90390684600F020FF8DE8070059
:100D00000004000C03D04FF0FF30410800E0104613
:100D1000B8F1000F03D00022009215461EE0751EA8
:100D200005D4FFF7C9FE303262556D1EF9D5B346C2
:100D30000122084302D000227F1C04E020783028E2
:100D400001D100227F1E002A099784D01DE0112DB9
:100D500007DAFFF7B1FE303262556D1C50EA01022E
:100D6000F5D1084302D00098C8B10EE00021681EFA
:100D700005E0235C625C63542254401E491C81429E
:100D8000F7DBAB46A81B401E0990002004F80B00BF
:100D90000B98099AC0F80880C0E9002B7AE7112661
:100DA0004FF0000857E72DE9F04F88460446D21D62
:100DB00022F0070191B0D1E90001CDE90A0103F069
:100DC0006BFD02460B98C00F01D02D2007E0206874
:100DD000810701D52B2002E0202101EAC000032A6F
:100DE000099001D0072A05DB03464146204600F062
:100DF00011FB0BE12078800601D5E06900E00620B8
:100E0000B8F1650F814606D0B8F1660F18D0B8F179
:100E1000670F70D131E00020B9F1110F009001DBB4
:100E2000112301E009F101030AAA01A90CA8FFF7A7
:100E3000E2FEDDE90C70002609F10105834647E07A
:100E400001204B4600904FF000470AAA01A90CA8C8
:100E5000FFF7D1FEDDE90DB00C995D46002610B913
:100E600009F101000D18B9EB050003D4C0F1FF36FC
:100E700009F10105A5EB09002BE0B9F1010F01DA39
:100E80004FF001090020B9F1110F0090484601DD33
:100E9000112300E003460AAA01A90CA8FFF7ABFE44
:100EA000DDE90C704D4600268346207800070AD401
:100EB000AB4500DA5D4601A8012D04DD411911F8AA
:100EC000011C302907D04F4502DA17F1040F04DA6C
:100ED000012082460FE06D1EEEE7002F02DCED1BC5
:100EE0003E4403E0781CA84200DD7D1CB81B00F1E5
:100EF000010A4FF000472078000703D4AA4501DB20
:100F00004FF0FF3A0021B7F1004F0DF143088DF883
:100F1000431024D002202B23002F01DA7F422D23FF
:100F20000A21021EA0F1010000DC5FB197FBF1FC79
:100F300097FBF1F201FB1C7C17460CF1300C08F812
:100F400001CDEEE7A8F1010003702188090501D564
:100F5000452100E06521A0F1010800F8011C099875
:100F60000FA9A1EB0807FF1D00B10120411901EBFA
:100F7000EA70A1693844081A401EA0612078C006B2
:100F800002D42046FFF7E2FA099828B1D4E90121FA
:100F90009047206A401C20622078C00622D5204657
:100FA000FFF7D4FA1EE0002E04DBB34502DD01A8F2
:100FB000805D00E03020D4E901219047206A401C88
:100FC0002062761CAAF101005FEA000A0AD100F053
:100FD0001DFAC0680168405CD4E901219047206A8D
:100FE000401C2062281EA5F10105DCDC07E0D4E9E5
:100FF000012118F8010B9047206A401C2062381E1E
:10100000A7F10107F3DC2046FFF7B6FA032011B081
:1010100041E600002DE9F04F04460D46D21D22F0B6
:10102000070089B0D0E900974846394603F034FC00
:101030000246F80F01D02D2307E02068810701D573
:101040002B2302E0202101EAC0038DF820300BB1F0
:10105000012000E00020032A824601D0072A04DB99
:101060002946204600F0D6F93FE12078800601D4D9
:101070000D2500E0E569C7F30A560D2D49DA002178
:101080004FEA175B08464FF00000002F00F44000C5
:1010900007DA00EB80004FF4400100EBD07001EA6A
:1010A00060008115012901DD4FF0FF3100224FEA78
:1010B000850CBCF1180F06D31346ACF118004FF0A5
:1010C0008052C24003E04FF4801323FA0CF30CF17A
:1010D0000C0CBCF1200F04D3ACF1200C09FA0CF07D
:1010E00001E007FA0CF000294FF0004801DD18B9C3
:1010F0000FE00ED140450CD319EB02095F4121B935
:10110000404502D19F4329EA0209BBEB175F00D09B
:10111000761C2088000502D57B48784402E07A4896
:101120007844193808AA302302F80A30037C0AF1FF
:101130000101002E0AF1020A53546A4602DC4FF004
:10114000300101E04FF031014FF001088DF800103F
:1011500002D0A6F2FF3603E059EA470100D06B4EF9
:10116000002D02DC2178090704D54FF002082E215A
:101170008DF80110C44600210BE0C7F303433F0183
:10118000C35C491C6D1E02F80830052908F10108EE
:1011900001DA002DF1DC00210CE000EB1973491C91
:1011A0001B786D1E082902F808304FEA091908F16A
:1011B000010801DA002DF0DC21688B0602D516E06B
:1011C000A8F10108E04505DD02EB080313F8013C36
:1011D000302BF5D0B8F1000F09DD02EB080313F84E
:1011E000013C2E2B03D1090701D4A8F10108002DE1
:1011F00005DD3E2102F808106D1E08F10108407C53
:10120000002E02F8080008F1010804DA2D207642C9
:1012100002F8080002E02B2002F808000A214FF42F
:101220007A70864208F101080BDB96FBF0F330334D
:1012300002F8083096FBF0F308F1010800FB136692
:1012400001E0642E0CDB642096FBF0F3303302F8EF
:10125000083096FBF0F308F1010800FB136601E08B
:101260000A2E06DB96FBF1F0303002F8080008F198
:10127000010896FBF1F001FB1060303002F8080025
:10128000A16908F1010808EB050202EB0A00081A3F
:10129000A0612078C00602D42046FFF757F9216AE2
:1012A00008AE01EB0A00206204E0D4E9012116F83F
:1012B000010B9047BAF1010AF7D22078C00602D597
:1012C0002046FFF743F96E4609E016F8010B3E2869
:1012D0000FD0D4E901219047206A401C2062B8F168
:1012E0000108F2D22046FFF747F909B00320BDE814
:1012F000F08F206A2844206203E0D4E901213020E5
:1013000090476D1EEBD3F8E72644000002FCFFFF78
:1013100010B5436913B1AFF3008001E0FFF74FF957
:10132000012010BD127800F124010A7000224A70D9
:101330000122EDE711684FF0FF32E9E710B543698C
:1013400013B1AFF3008001E0FFF7D0F9012010BD29
:10135000128800F1240182840022C2840122EDE778
:1013600011684FF0FF32E9E770B516460C460546A6
:1013700000F044F8036893F80101012806D0FF2C1F
:101380000FD8185D68B101202C7070BDD3F807012B
:101390003246214603F2071303442846BDE8704055
:1013A00018474FF0FF3070BD0048704738040020E8
:1013B0007546FFF7F9FFAE4605006946534620F033
:1013C0000700854618B020B5FEF79AFFBDE820401B
:1013D0004FF000064FF000074FF000084FF0000BF1
:1013E00021F00701AC46ACE8C009ACE8C009ACE8A4
:1013F000C009ACE8C0098D467047000010B500F088
:1014000005F8001D10BD00BF993B00000048704763
:10141000580400202DE9F0411F46044603260168C8
:10142000072A01F4006004DB08B116A505E016A543
:1014300003E008B115A500E015A521F0100020601B
:10144000A069C01EA0610FB1401EA0612046FFF739
:101450007DF84FB1D4E9012138469047206A401CFD
:101460002062C01C206206E0206AFAE7D4E901216C
:1014700015F8010B9047761EF8D22046FFF77CF84E
:10148000BDE8F0814E414E006E616E00494E46004F
:10149000696E66002DE9F047814616468AB03548E8
:1014A00078440DC88DE80D0032487844801C03ACA8
:1014B0000DC884E80D0041F69B300844372190FBAD
:1014C000F1F290FBF1F5A5F1800501FB12041B3C44
:1014D00002D56442012000E00020DFF898A0804699
:1014E0000027FA44AAF1BE0A0EE0E0070AD032460D
:1014F000684607EB470101230AEB810100F01EFB60
:101500008DE8070064107F1C002CEED1194F7F443A
:10151000AE3F19E0E80715D007EB04100DF1180AEB
:1015200090E80E008AE80E00C068F04201D19819D8
:1015300008903246012306A903A800F0FFFA03AB86
:1015400083E807006D10641C002DE3D14FF0010308
:1015500032466946B8F1000F03A802D000F0D9FA6C
:1015600001E000F0EBFAC9E90001C9F808200AB06F
:10157000BDE8F0873041000010B50446AFF30080AD
:101580002046BDE81040FEF7A6BE00004FF0013C2B
:1015900050F8042B51F8043B9A4221D1A2EB0C03E2
:1015A000934313EACC1317D150F8042B51F8043BA2
:1015B0009A4215D1A2EB0C03934313EACC130BD13F
:1015C00050F8042B51F8043B9A4209D1A2EB0C03CA
:1015D000934313EACC13DBD04FF00000704700BFF9
:1015E000D01A01BAB1FA81F101F0180122FA01F022
:1015F000CB40C1F12001DBB2C0B2C01A2CFA01F31A
:10160000D11A914311EAC311E6D17047014918205C
:10161000ABBEFEE72600020070475FEA400C08BF41
:1016200091F0000F4FEA8C234FEAC12243EA515157
:101630004FEA1C5018BF00F5F0404FEA300018BFC9
:1016400041F000415FEA6C5C00F02980BCF1FF3F93
:1016500008BF40F080407047130C06BF12044FF0E3
:10166000100C4FF0000C130E04BF12020CF1080C0A
:10167000130F04BF12010CF1040C930F04BF92006E
:101680000CF1020CD30F04BF52000CF1010C1146F7
:101690004FF00002A0F11F00A0EB0C00704711F00A
:1016A000004F08BF704731F000413FF4D5AF0B0C3D
:1016B00006BF09044FF0100C4FF0000C0B0E04BFD6
:1016C00009020CF1080C0B0F04BF09010CF1040C0A
:1016D0008B0F04BF89000CF1020CCB0F04BF490033
:1016E0000CF1010CCCF12003A0EB0C0022FA03F367
:1016F00002FA0CF241EA030100F10100704720F008
:101700007F4C80EA030023F07F47ACEB070303F52F
:101710007C5300F0004003F1FF032DE980494FEABC
:10172000154B09B44FEA144325EA0B4E24EA03484B
:101730000FF2042606EB132749083E785FEA3202CF
:1017400003FB0667C7F5000707FB06F64FEA5437A9
:101750004FEAD64606F1020607FB066CCCF1005CA8
:101760004FEA1C472CEA074C07FB06F40CFB06F576
:1017700004EB15464FEA961634BF00204FF00040A8
:101780004FEAD13706FB07FC4FEA1C4C0CFB0BF76A
:10179000D21B03FB0CF761EB07010CFB0EF7B0EB60
:1017A000074072EB17420CFB08F734BFA2EB07426D
:1017B000B2EB074261EB17414FEA0C444FEA910745
:1017C00006FB07FC4FEA1C4C0CFB0BF7B0EBC740C9
:1017D00072EB573203FB0CF734BFA2EBC742B2EBFC
:1017E000C74261EB57310CFB0EF7B0EBC70072EB51
:1017F00057720CFB08F734BFA2EBC702B2EBC7026B
:1018000061EB5771039F4FEA816141EA921104EB4A
:10181000CC044FEAD1374FEA826206FB07FC42EA6A
:1018200090124FEA80604FEA1C4C0CFB0BF7D21B66
:1018300003FB0CF761EB07010CFB0EF7B0EB074065
:1018400072EB17420CFB08F734BFA2EB0742B2EB76
:10185000074261EB17414FEA8C554FEA910704EBC1
:101860009C2406FB07FC4FEA1C4C0CFB0BF7B0EB6F
:10187000C74072EB573203FB0CF734BFA2EBC742F1
:10188000B2EBC74261EB57310CFB0EF7B0EBC70070
:1018900072EB57720CFB08F734BFA2EBC702B2EB36
:1018A000C70261EB577115EB4C254FEA816141EAA4
:1018B00092114FEA82624FEAD13742EA901206FB58
:1018C00007FC44F100044FEA80604FEA1C4C0CFB1B
:1018D0000BF7D21B03FB0CF761EB07010CFB0EF7B8
:1018E000B0EB074072EB17420CFB08F734BFA2EBDA
:1018F0000742B2EB074261EB174115EB1C154FEAAB
:10190000813141EA92414FEA823242EA90424FEA03
:1019100080304FEA0C7644F1000448EA03434EEA73
:101920000B484FF0000EB2EB080C71EB030724BF1D
:10193000624639464EEB0E0E4FF0000B0018524136
:1019400049414BEB0B0BB2EB080C71EB03077BF13E
:10195000000B24BF624639464EEB0E0E4FF0000BD3
:101960000018524149414BEB0B0BB2EB080C71EBE9
:1019700003077BF1000B24BF624639464EEB0E0E87
:1019800051EA020718BF46F0010616EB0E7655F134
:10199000000254F1000103D5BDE88901BDE80088CB
:1019A000BDE88901BDE80048B619524141EB01018B
:1019B000A3F10103704780807F7E7D7C7B7A7978FC
:1019C000777676757473727171706F6E6E6D6C6C04
:1019D0006B6A6A69686867666665646463636261A6
:1019E0006160605F5F5E5E5D5D5C5C5B5B5A5A5927
:1019F0005958585757565655555554545353525293
:101A00005251515050504F4F4F4E4E4D4D4D4C4CEA
:101A10004C4B4B4B4A4A4A49494948484847474733
:101A20004746464645454544444444434343434270
:101A3000424242414141002B9C4630D477002BD09A
:101A40001CB54FEA370703B44FF010004FF01001F8
:101A5000BAF1000F06D0BCF1000FDCBF40F0080067
:101A600040F008014FF000000FBCBDE810400BF142
:101A7000010BBBF1010F08BF5FEA170722BF12F18C
:101A8000010211F101014FF0004143F1000300F0A8
:101A9000004043EA00007047F9D35708D0E746EA10
:101AA000064613F1400F4FEA16461FDD13F1200FD3
:101AB000DFBF16430A46002120335B42BED0C3F18C
:101AC000200746EA064602FA07F74FEA164646EAB4
:101AD0000706C3F1200722FA03F201FA07F721FAF9
:101AE00003F14FF0000342EA0702A7E746EA0206C5
:101AF00046EA06464FEA164646EA0106BCBF46EAF3
:101B00000646360C4FF000034FF000024FF0000184
:101B100094E72DE9804C9A46934670B491E83800DA
:101B200007C831EA400C48BF34EA430C03D5FFF73D
:101B3000E6FDFFF780FFF0BCBDE8008C2DE9804C8E
:101B40009A46934670B491E8380007C810F0804F69
:101B500008BF13F0804F03D100F005F8FFF76BFFCB
:101B6000F0BCBDE8008C20F07F4780EA030023F042
:101B70007F4C07EB0C03A3F57C5300F00040A3F16E
:101B8000FE0392F0000F00F0B38095F0000F00F01C
:101B900077802DE901494FEA11404FEA144621EAC6
:101BA000004800FB06FC24EA064708FB06F607FB94
:101BB00008F800FB07F718EB06484CEB164C4FEA09
:101BC000124B18EB07484FEA15464CEB174022EA38
:101BD0000B4E0BFB06FC25EA06470EFB06F607FB41
:101BE0000EFE0BFB07F71EEB064E4CEB164C4FF0B0
:101BF00000061EEB074E4CEB174B18EB0B0840F1A1
:101C0000000018EB0E0B58EB000840F100008F1A93
:101C10004FF000013CBFC943661B14BFB5EB040C79
:101C200000213CBFC943F61B4FEA17444EEA8E0E13
:101C300027EA04454FEA1C4704FB07622CEA074CDD
:101C400005FB07F70CFB05F604FB0CFC16EB07463F
:101C500042EB174216EB0C4642EB1C421BEB06060E
:101C600058EB0202414146EA9E0601D5BDE80189D2
:101C7000B619524141EB0101A3F10103BDE801890D
:101C80004FEA14454FEA114724EA054621EA074C7A
:101C900005FB07F406FB07F70CFB06F105FB0CFC44
:101CA00011EB074144EB17444FEA124711EB0C418B
:101CB00044EB1C4422EA074C05FB07F206FB07F73E
:101CC0000CFB06F605FB0CFC16EB074642EB174235
:101CD00016EB0C4642EB1C456A1854F1000148BF54
:101CE0007047B619524141EB0101A3F1010370475E
:101CF00095F0000F37D04FEA11424FEA144721EA1E
:101D0000024624EA074C02FB07F106FB07F70CFB2F
:101D100006F402FB0CFC14EB074441EB17414FEABD
:101D2000154714EB0C4441EB1C4125EA074C02FB20
:101D300007F506FB07F70CFB06F602FB0CFC16EB9F
:101D4000074645EB174516EB0C4645EB1C421219AE
:101D500051F1000148BF7047B619524141EB0101F2
:101D6000A3F1010370474FEA14454FEA114724EAF3
:101D7000054621EA074C05FB07F106FB07F70CFBBC
:101D800006F24FF0000605FB0CFC12EB074241EB9C
:101D9000174112EB0C4251EB1C4148BF704792189F
:101DA00041EB0101A3F10103704710B50146806BBF
:101DB000026C12F0500F05D0026CD20626D500F04E
:101DC000E7F910BD016C41F40071016401688A6893
:101DD00012F0405F17D1027EAAB9CA6A12F4700FDE
:101DE00002D08A6852050ED44A6822F020024A6066
:101DF000016C21F480710164016CC90403D4016C8D
:101E000041F00101016400F0C1F910BD806BC26CAA
:101E1000BDE810400846104710B5806B40210164B2
:101E2000416C41F00401416400F0B2F910BD10B5FD
:101E3000806B00F0ACF910BD014800F0AAB90000B9
:101E400044020020464910B54A6822F440324A60F4
:101E50004A6843681A434A6001684A6822F48072FB
:101E60004A6001684A68036942EA03224A600168DD
:101E70004A6822F040724A6001684A6883681A43DF
:101E80004A6001688A6822F400628A6001688A6890
:101E9000C3681A438A60816A6FF07062D142016838
:101EA0008A6822F070628A6001688A680CD0836A4E
:101EB0001A438A6001688A6822F040528A60016889
:101EC0008A68C36A1A4301E022F040528A600168BE
:101ED0008A6822F002028A6001688A68037E42EA08
:101EE00043028A6090F82010002901684A680FD0E8
:101EF00042F400624A6001684A6822F460424A6023
:101F000001684A68174C436A04EB43331A4301E003
:101F100022F400624A600168CA6A22F47002CA624E
:101F20000168CA6A838B104C04EB03531A43CA62DC
:101F300001688A6822F400728A6001688A6890F8F1
:101F4000303042EA43228A6001688A6822F4806263
:101F50008A6001688A68406942EA8020886010BD12
:101F60000023014000E0FFFF0000F0FFFEE700005B
:101F7000014800F0B7BA0000D80300200168182318
:101F8000CAB2103AB2FBF3F2054B6FF30901032A10
:101F90009B5CC36500D9091D816508467047000038
:101FA000CE54000810B5014600208B698A6A4FF0B4
:101FB000C07453B1B3F5005F15D072B1012A0CD0D3
:101FC000022A0AD0032A09D104E01AB1012A06D054
:101FD000022A03D1C96AC90100D5012010BDC96A0E
:101FE000A142FAD010BD002AF7D0012AF2D0022A6D
:101FF000F3D0032AF3D010BD30B50468256825F46A
:1020000080252560046863608368402B036803D0E3
:1020100099600068C26030BD9A600068C16030BDE0
:10202000704772B6FEE7704778B50024009490F8C8
:102030003C20012A19D0012280F83C200A6807239D
:102040000568092A13D9EE680A3A02EB4202934066
:102050009E43EE600B788A680A3B03EB43039A4089
:102060000368DD682A43DA6010E0022078BD2E693B
:1020700002EB420293409E432E610B788A6803EB89
:1020800043039A4003681D692A431A614A681F2363
:10209000072A13D205686E6B521E02EB8202934030
:1020A0009E436E630A8893B20A79521E02EB820243
:1020B00093400268556B2B43536327E005680D2A54
:1020C00012D22E6BD21F02EB820293409E432E63EC
:1020D0000B790A88DB1F92B203EB83039A400368F3
:1020E0001D6B2A431A6311E0EE6A0D3A02EB82027D
:1020F00093409E43EE620B790A880D3B92B203EB4C
:1021000083039A400368DD6A2A43DA621B4B056841
:10211000194A9D420AD10D68122D07D1556825F440
:1021200000055560556845F48005556005689D4279
:102130001DD1134D0B68AB4201D0112B17D1536841
:1021400023F480035360536843F400035360096829
:10215000A9420CD10B490C4A0968B1FBF2F101EB21
:102160008101490000E0491E00910029FBD180F85F
:102170003C40002078BD00000023014000200140C9
:10218000120000105C00002040420F0070477047B2
:10219000704770B5044600680668456816F0020F7F
:1021A00005F020012AD049B3216CC90603D4216C63
:1021B00041F400712164816811F0405F17D1217EE4
:1021C000A9B9C16A11F4700F02D0816849050ED413
:1021D000416821F020014160206C20F4807020646F
:1021E000206CC00403D4206C40F001002064204621
:1021F000FFF7CCFF21686FF01200086016F0040FA3
:1022000005F0800132D089B3206CC00603D4206C65
:1022100040F4005020642068816811F4401F1ED1F2
:10222000816B11F4401F02D08168490517D44168C1
:10223000490514D4816811F0405F10D1217E71B935
:10224000416821F080014160206C20F480502064BE
:10225000206CC00503D4206C40F0010020642046AF
:10226000FFF7E1FE21686FF00C00086016F0010F27
:1022700005F040010FD071B120680068C0070AD096
:10228000206C40F480302064204600F043F8216840
:102290006FF00100086016F0200F05F080610ED08D
:1022A00000290CD0606C40F00200606420686FF080
:1022B000200505602046FFF76BFF2068056070BDB4
:1022C00070B504004FF0000503D0206C002610B15B
:1022D00007E0012070BD204600F01EF8666484F817
:1022E0003C60206CC00610D4206C20F4885040F074
:1022F000020020642046FFF7A5FD6664206C20F0F4
:10230000020040F00100206400E0012584F83C60F8
:10231000284670BD7047000070B586B0064614218F
:102320006846FEF7DEF82149306888423CD12048F3
:102330000025016841F480710160006800F480703C
:1023400005901B481438016841F0010101600068E4
:10235000694600F0010005900F2000900320CDE9B0
:102360000105144800F042FA144C1348C4E9000572
:102370000015A560C4E90350800060618000A06181
:102380008011C4E907052046656200F07BF908B1B9
:10239000FFF747FEB463002211461220A66300F047
:1023A000E1FE122000F0D0FE06B070BD002001401A
:1023B000443802400000024010640240D80300206C
:1023C000F8B5044600200E46009094F83C10012910
:1023D00007D0012184F83C1021688B68DB0702D00C
:1023E00011E00220F8BD8B6843F001038B60364991
:1023F000364B0968B1FBF3F101EB410100E0491EE6
:1024000000910029FBD121688B68DB0503D58B681F
:1024100023F480738B6021688B68DB0749D0236CC1
:1024200040F20165AB4343F4807323644968490576
:1024300005D5216C21F4005141F480512164216CB7
:10244000C90404D5616C21F00601616400E0606498
:1024500084F83C00A16B1F481D4DC863A16B1E484A
:102460000864A16B1D48C86421686FF022000860F1
:102470002068416841F0806141602068816841F4D2
:10248000807181602168134632464C31A06B00F0A8
:1024900063F96868C006206802D01149884210D1EB
:1024A000816811F0405F0CD1816841F0804181600A
:1024B00007E0206C40F010002064606C40F00100E8
:1024C00060640020F8BD00005C00002040420F0066
:1024D00000230140AB1D00082F1E0008191E000834
:1024E000002001402DE9F84304464FF00009CDF8E3
:1024F000009063484FF41651A56D0068B0FBF1F7EA
:102500002E6894F85C10082000FA01F131420FD0D7
:1025100021680A6852070BD50A6822F004020A6093
:1025200094F85C108840A860606D40F00100606520
:1025300094F85C104FF0010808FA01F0304208D01E
:1025400021684969090604D5A860606D40F0020061
:10255000606594F85C1004208840304208D02168FF
:102560000968890704D5A860606D40F004006065C3
:1025700094F85C1010208840304218D02168096817
:10258000090714D5A86020680168490304D50068CC
:10259000000308D5A16C07E00168C90503D40168F0
:1025A00021F008010160216C09B12046884794F8A8
:1025B0005C1020208840304231D021680968C9066B
:1025C0002DD5A86094F8350005282068016806D04C
:1025D000490347D5006800031DD4616C1CE021F05D
:1025E000160101602068416921F080014161206C81
:1025F00008B9A06C20B12068016821F008010160D1
:1026000094F85C103F208840A86084F8358084F8F6
:102610003490216D1FE0E16B09B120468847606D61
:1026200000282BD0606DC00714D0052084F8350039
:102630002068016821F0010101600098401C0090B1
:10264000B84203D820680068C007F6D184F8358006
:1026500084F83490E16C002910D001B02046BDE828
:10266000F04308470168C905D5D4016821F010017D
:10267000016084F8358084F83490CCE7BDE8F883B5
:102680005C0000202DE9F041044600F09FF9064669
:102690005CB1022084F83500002584F834502068AD
:1026A000016821F0010101600DE00120BDE8F08129
:1026B00000F08CF9801B052805D9202060650320D7
:1026C00084F83500F2E720680068C007F0D122687E
:1026D000116820480140D4E901031843D4E90336C6
:1026E0003343184363691843A3691843E3691843E4
:1026F000236A18430843616A042903D1D4E90B1300
:1027000019430843106020684069666A20F0070199
:1027100030460E43012704280CD1A06A0643E06A24
:1027200040B12046FFF73EFC20B14020606584F8B0
:102730003570BAE7206846612046FFF71FFC94F821
:102740005C203F2191408160656584F835700020F0
:10275000ACE700003F8010F02DE9F0410446866DA3
:1027600090F83400002501280DD0012084F83400B1
:1027700094F835700020012F07D084F8340002252A
:102780002846BDE8F0810220FBE7022784F8357077
:1027900060652046FFF730FC94F85C103F208840CD
:1027A000B0602068016841F016010160206C20B122
:1027B0002068016841F0080101602068016841F06B
:1027C00001010160DCE7000070B5044600F0FEF88E
:1027D0000546601C02D004480078044400F0F6F876
:1027E000401BA042FAD370BD500000202DE9F84FE5
:1027F000DFF8B8A10022012403254FF00F090AF1E8
:10280000040BAAF1040E00BF0B6804FA02F6334071
:10281000B34273D10F7907F00307012F01D0022FC4
:1028200016D187684FEA420805FA08FC27EA0C0728
:10283000D1F80CC00CFA08FC4CEA070CC0F808C030
:102840004768B7430E79C6F3001696403E4346608C
:102850000E79F643B6070DD0C768560005FA06FC98
:1028600027EA0C07D1F808C00CFA06FC4CEA070C62
:10287000C0F80CC00E7906F00306022E10D1D6085F
:1028800000EB8608D8F8206057074FEAD76C09FAA2
:102890000CF7BE430F6907FA0CF73743C8F82070EE
:1028A00006684FEA420C05FA0CF7BE430F7907F0B1
:1028B000030707FA0CF7374307604E6816F4403FEA
:1028C0006DD03B4E376847F480473760366822F05A
:1028D000030706F480460096364E07EB060CDCF83C
:1028E000086897073F0F09FA07F826EA0806DFF895
:1028F000C880404503D14FF000081EE04FE0DFF8EC
:10290000BC80404502D14FF0010816E0DFF8B080EE
:10291000404502D14FF002080FE0DFF8A8804045A3
:1029200002D14FF0030808E0DFF89C80404502D157
:102930004FF0040801E04FF0070808FA07F848EAEA
:102940000608CCF80888DAF800605746D1F804C0C9
:102950009E435FEACC2C00D51E433E60DBF800604E
:102960005F46D1F804C09E435FEA8C2C00D51E431D
:102970003E60DEF800607746D1F804C09E435FEA0F
:102980008C3C00D51E433E60084F083F3E68D1F89E
:1029900004C09E435FEACC3C00D51E433E60521CFF
:1029A000102AFFF431AFBDE8F88F0000083C014069
:1029B0004438024000300140000002400004024060
:1029C00000080240000C02400010024001488068EC
:1029D000704700005000002070B5040025D094F826
:1029E0003D00002520B984F83C50204600F0F4FA60
:1029F000242084F83D002068016821F00101016075
:102A00002068016841F4004101602068016821F4F8
:102A10000041016000F072FC4D4A6168914201D8AA
:102A20004C4900E04C49884201D2012070BD4B491D
:102A30002368B0FBF1F15E6826F03F060E435E604E
:102A40006368934206D94FF4967359434FF47A73EF
:102A5000B1FBF3F12368491C1E6A26F03F0631439F
:102A600019626168914210D84900401EB0FBF1F232
:102A7000521CC2F30B02042A01D2042022E0B0FB54
:102A8000F1F0401CC0F30B001CE0A268F2B301EBB4
:102A9000C10303EB0116431EB3FBF6F35B1C43F4C7
:102AA00080431B0549D092B301EBC10202EB011137
:102AB000401EB0FBF1F0401CC0F30B0040F480401E
:102AC00040F400402168CA694CF6FF739A431043F2
:102AD000C861D4E9071001432068026822F0C002EF
:102AE00011430160D4E9030101432068826848F280
:102AF000FF339A4311438160D4E9050108432168FB
:102B0000CA6822F0FF021043C86001E00EE016E040
:102B10002068016841F0010101602564202084F8EB
:102B20003D00256384F83E50002070BD01EB410656
:102B3000431EB3FBF6F35B1CB3E70120C2E701EBD6
:102B40004101401EB0FBF1F0401CC0F30B00B7E7A1
:102B5000A086010080841E0000093D0040420F0055
:102B60002DE9FF4F81B089460446FFF72FFF054648
:102B700094F83D004FF0000820287DD11923012250
:102B800050492046009501F0F5F8002874D194F8DA
:102B90003C00012870D0012084F83C0020680168C6
:102BA000C90703D1016841F0010101602068016893
:102BB00021F400610160242084F83D000026266491
:102BC0004148E0624FF0011B20272068016841F472
:102BD000807101600095002259462046049B01F057
:102BE000C9F850B120680068C00502D54FF40070E4
:102BF0002064032005B0BDE8F08F216809F0FE00D5
:102C00000861FFF7E3FE2168054648694969C0F39A
:102C10004000C1F380214FF0A00A0FE0FFF7D6FE7D
:102C2000411B0498814200D808B984F83DA021686E
:102C300048694969C0F34000C1F3802194F83D2000
:102C4000A02A02D008B90029E8D084F83D70206895
:102C50004169C943890716D4016841F400710160D4
:102C60002068416980691923012216492046009590
:102C700001F080F8B8B900E021E084F83D7084F8F4
:102C80003C600020B6E7016841F4007101602168F2
:102C90006FF480604861192301220A49204600959B
:102CA00001F068F808B10120A4E7039808F10108D1
:102CB00080458AD384F83D7084F83C60F3E70220B5
:102CC00098E70000020010000000FFFF2DE9F84F18
:102CD0001F4690468A460446DDF82890FFF776FEA8
:102CE000054694F83D00202875D1192301226C492E
:102CF0002046009501F03EF80028F5D194F83C00FC
:102D0000012868D0012084F83C0020680168C907C8
:102D100003D1016841F0010101602068016821F4DC
:102D200000610160222084F83D00102084F83E00FC
:102D300000262664C4F824806785608D2085594864
:102D4000E0622B464A465146204600F029FF002803
:102D500078D1208D544F68B1012814D00228206802
:102D6000016816D041F48061016020684169806982
:102D7000009087E02068416981690091016841F411
:102D8000007101607EE02068016821F480610160CB
:102D9000F0E721F4806101602068016841F400617E
:102DA000E2E7032848D801280AD0022814D04B466D
:102DB000002239462046009500F0DCFFD8BB27E012
:102DC0002A464946204601F054F8A0BB2068006915
:102DD000616A08704DE061E04B46002239462046AA
:102DE000009500F0C7FF30BB2068016841F4007116
:102DF000016020680069616A0870606A401C606256
:102E0000218D491E2185618D491E618521682EE035
:102E10002068016821F48061016020680069616AAE
:102E20000870606A401C6062208D401E2085608DA5
:102E3000401E6085D0E705E02A464946204601F05D
:102E400018F810B10120BDE8F88F20680069616AA8
:102E50000870606A401C6062218D491E2185618D69
:102E6000491E618521684A69D24352070AD409691B
:102E70000170606A401C6062208D401E2085608D5C
:102E8000401E6085208D00288BD1202084F83D00D5
:102E900084F83E6084F83C600020D4E70220D2E74A
:102EA000020010000000FFFF040001002DE9F84FB0
:102EB0001F4690468A460446DDF82890FFF786FDB7
:102EC000054694F83D0020287FD11923012240496E
:102ED0002046009500F04EFF002876D194F83C0083
:102EE000012872D0012084F83C0020680168C907DD
:102EF00003D1016841F0010101602068016821F4FB
:102F000000610160212084F83D00102084F83E001B
:102F100000262664C4F824806785608D20852D48AE
:102F2000E0622B464A465146204600F0AFFE90B97B
:102F3000206841698069009036E02A46494620466B
:102F400000F0CAFF50B1206C042804D12068016849
:102F500041F4007101600120BDE8F88F606A2168CA
:102F600000780861606A401C6062618D491E61855D
:102F7000218D491E89B2218522685369DB435B0795
:102F80000BD451B100781061606A401C6062608DA2
:102F9000401E6085208D401E20852A4649462046D9
:102FA00000F0C2FE0028CED1208D0028C5D154F8F3
:102FB0003D0B016841F400710160202004F81E09F6
:102FC000E67766770020C7E7FFE70220C4E7000046
:102FD000020010000000FFFF2DE9F04186B004461A
:102FE00014216846FDF77DFA2368274CDFF894C06A
:102FF000254912250126032704222448103463455D
:1030000016D10B6843F002030B600968049201F0CB
:1030100002010591C0218DE8E2006946FFF7E6FB59
:10302000206840F400102060206800F4001024E0C4
:10303000DFF85CC0634521D10B6843F002030B60ED
:103040000968049201F0020105914FF480618DE856
:10305000E20069468046FFF7C9FB08208DE8E100E1
:103060000920049069464046FFF7C0FB206840F401
:1030700080002060206800F48000059006B0BDE864
:10308000F08100000054004030380240000402404B
:1030900000580040024881680278114481607047FE
:1030A000500000200B4810B5016841F40071016028
:1030B000016841F480610160016841F48071016040
:1030C000032000F06FF80F2000F006F800F024F85D
:1030D000002010BD003C024070B50D4D04464FF479
:1030E0007A712878B1FBF0F00A490968B1FBF0F079
:1030F00000F0FCFA48B9102C07D200222146501EDD
:1031000000F030F800206C6070BD012070BD000040
:10311000500000205C0000200A4808B5016841F416
:1031200080410160006800F4804000900548001F65
:10313000016841F080510160006800F0805000900B
:1031400008BD000044380240002809DB00F01F02DF
:10315000012191404009800000F1E020C0F80011F9
:1031600070470000F0B40E4B1B680C46C3F30223FB
:10317000C3F10705042D00D90425191D072901D223
:10318000002300E0DB1E012606FA05F1491E21405E
:1031900099409E40761E16403143F0BC01F0A7BB1B
:1031A0000CED00E0064900F0070208684FF6FF0347
:1031B000184040EA0220034A1043086070470000AC
:1031C0000CED00E00000FA052DE9F0470E46050081
:1031D00065D0DFF81481D8F80000F7B200F00700DE
:1031E000B04207D288F80070D8F8000000F007005D
:1031F000B04254D128683D4C810712D5400703D511
:10320000206840F4E05020602878000703D520684B
:1032100040F4604020602068A96820F0F000084376
:1032200020602878C0072DD0304968680839012807
:1032300012D0022813D0032811D009688907002969
:103240002DDA216821F0030101432160FFF7BEFB65
:10325000814641F2883A0EE009688903EFE7096880
:103260008901ECE7FFF7B2FBA0EB0901514502D958
:103270000320BDE8F0872068696800F00C00B0EB1F
:10328000810FEFD1D8F80010404601F00701B1429C
:1032900007D90770006800F00700B04201D0012094
:1032A000E7E72878400705D52068E96820F4E05072
:1032B000084320602878000706D52068296920F493
:1032C000604040EAC100206000F028F82168084A08
:1032D000C1F30311515CC840064908600648006804
:1032E000FFF7FAFE0020C4E7003C02400838024025
:1032F000D65400085C000020540000200448054912
:1033000000680968044AC1F38221515CC8407047D3
:103310005C00002008380240E6540008154810B54B
:10332000006810F00C02144813D01449042A0FD07E
:10333000082A0ED10F4C241F2268236802F03F0296
:103340005B0207D52068C0F38810A0FB010106E0EE
:10335000084610BD2168C1F38811A1FB00010023BC
:10336000FCF7E0FF2168C1F30141491C4900B0FBB3
:10337000F1F010BD083802400024F40040787D01CF
:103380002DE9F84F04006ED02078DFF84C93C00789
:10339000A9F104054AD009F104000168C1F38101D3
:1033A000012908D00068C0F3810002280AD1D9F8A9
:1033B0000000400206D52868800337D560680028E1
:1033C000E1D033E06068B0F5803F10D0B0F5A02FB9
:1033D000286810D020F480302860286820F48020ED
:1033E00028606068A8B1FFF7F1FA06460DE028688A
:1033F00040F48030F4E740F480202860F7E700BF15
:10340000FFF7E4FA801B642873D828688003F7D597
:103410000CE0FFF7DBFA064605E000BFFFF7D6FA3F
:10342000801B6428F0D828688003F7D42078DFF860
:10343000AC8280074FF0000A3ED5A748001D016806
:1034400011F00C0F08D00068C0F3810002280BD1E6
:10345000D9F80000400207D42868800716D5E06834
:10346000012800D112E033E1E068B8B10120C8F8CA
:103470000000FFF7ABFA064605E000BFFFF7A6FA2B
:10348000801B0228C0D828688007F7D528682169E2
:1034900020F0F80040EAC10028600DE0C8F800A064
:1034A000FFF794FA064604E0FFF790FA801B022823
:1034B0001FD828688007F7D42078000722D5864FC8
:1034C00087486169703771B101210160FFF77EFAA9
:1034D000064604E0FFF77AFA801B022809D838680C
:1034E0008007F7D50EE0C0F800A0FFF76FFA064698
:1034F00005E082E0FFF76AFA801B02287DD8386871
:103500008007F7D42078400768D5DFF8CCB10027D2
:103510000BF13C0BDBF80000C0000BD4DBF8001013
:1035200041F08051CBF80010DBF80000012700F0DB
:10353000805000906B4E3068C00510D4306840F465
:1035400080703060FFF742FA009005E0FFF73EFA26
:103550000099401A022850D83068C005F6D55E4E52
:10356000A0686C3601280FD00528306810D020F0F4
:1035700001003060306820F004003060A068B8B10D
:10358000FFF724FA00900FE0306840F00100F4E704
:1035900040F004003060F7E7FFF718FA0099411A8D
:1035A00041F28830814266D830688007F4D50EE059
:1035B000FFF70CFA009007E0FFF708FA0099411AAC
:1035C00041F28830814256D830688007F4D42FB158
:1035D000DBF8001021F08051CBF80010A069C8B3CF
:1035E0003D49091D0968C1F3810102294AD0022819
:1035F000504607D0C8F8600000E03CE0FFF7E6F96D
:1036000004463BE04746C8F86000FFF7DFF906468E
:1036100005E000BFFFF7DAF9801B02282BD82868E5
:103620008001F7D4D4E907010843A16A2E4A49086A
:1036300002EB0141626A41EA8211084394F82C10BE
:1036400040EA0161C9F8001001203866FFF7BEF9B1
:10365000044606E03EE000BFFFF7B8F9001B022871
:1036600009D828688001F7D534E000BFFFF7AEF92C
:10367000001B022802D90320BDE8F88F28688001CA
:10368000F4D427E00128F7D0D9F80000E26900F46B
:10369000800191421CD1226A00F03F01914217D172
:1036A00047F6C071626A0140B1EB821F10D1A26A75
:1036B0004FF0FF3300F4403103EB5202B1EB024F05
:1036C00006D194F82C1000F07060B0EB016F01D0BF
:1036D0000120D1E70020CFE7043802400000474234
:1036E000800E4742007000400000FFFF10B5401EF2
:1036F000B0F1807F01D3012010BD4FF0E024606164
:103700000F21601701F0F3F80020A061072020616D
:10371000002010BD10B590F83C20012A22D00122D3
:1037200080F83C20CA688C6822F4407222434C68BE
:1037300022F4806222430C6822F4006222430C6966
:1037400022F4805222434C6922F400522243C96978
:10375000002322F480420A4301684A6480F83C3026
:10376000002010BD022010BD70B590F83C20012A49
:103770002CD0012480F83C40022280F83D200368D0
:103780005A689D6822F070060A6832435A60104BEE
:1037900002689A420ED0B2F1804F0BD00D4B9A4284
:1037A00008D00D4B9A4205D00C4B9A4202D00C4BDC
:1037B0009A4204D1496825F080031943916080F84A
:1037C0003D40002180F83C10084670BD022070BDCD
:1037D000000001400004004000080040000C0040D0
:1037E0000040014010B5040003D094F83D0010B132
:1037F00007E0012010BD002084F83C00204600F0C6
:103800001FF8022084F83D00211D206800F012FFFF
:10381000012084F8460084F83E0084F83F0084F8D4
:10382000400084F8410084F8420084F8430084F8A2
:10383000440084F8450084F83D00002010BD0000DD
:1038400008B500680649884208D10648016841F079
:1038500001010160006800F00100009008BD000057
:10386000000001404438024070B5044690F83C0026
:103870000025012817D0012684F83C60022084F836
:103880003D002068826822F0770222F47F42826045
:103890000868502838D00DDC20284FD005DC90B3C4
:1038A000102811D14AE0022070BD302846D04028AF
:1038B0000AD13BE060282FD070280DD0B0F5805F92
:1038C00003D0B0F5005F12D0012584F83D600020E0
:1038D00084F83C00284670BDCB68D1E901212068FE
:1038E00000F001FF2068816841F0770109E0CB68B2
:1038F000D1E90121206800F0F6FE2068816841F4DA
:1039000080418160E1E719E0CA684968206800F0F9
:103910009FFF5021206806E0CA684968206800F0CF
:10392000A8FF6021206800F0E8FECEE7CA68496879
:10393000206800F08DFF40212068F4E722680146EE
:103940001046F0E710B586B0044614216846FCF72F
:10395000C8FD0E492068884216D10D480021026832
:1039600042F001020260006800F0010005904FF48F
:10397000807000900220CDE901010120CDE9031003
:1039800069460448FEF732FF06B010BD0000014052
:10399000303802400000024070B5044690F83C0008
:1039A00000260D4601280FD0012084F83C006AB1A2
:1039B000042A1DD0082A2FD00C2A3FD0012600202F
:1039C00084F83C00304670BD022070BD206800F0D5
:1039D0009DFE2068816941F008018161206881694C
:1039E00021F004018161206881692A69114311E095
:1039F000206800F0B3FE2068816941F400618161B4
:103A00002068816921F480618161206881692A6967
:103A100041EA02218161D2E7206800F0CBFE2068F4
:103A2000C16941F00801C1612068C16921F0040148
:103A3000C1612068C1692A69114311E0206800F062
:103A4000E5FE2068C16941F40061C1612068C16977
:103A500021F48061C1612068C1692A6941EA0221BB
:103A6000C161ACE710B5040003D094F83D0010B17B
:103A700007E0012010BD002084F83C00204600F043
:103A80001EF8022084F83D00211D206800F0D2FDC0
:103A9000012084F8460084F83E0084F83F0084F852
:103AA000400084F8410084F8420084F8430084F820
:103AB000440084F8450084F83D00002010BD7047A4
:103AC00010B50446022249B104290ED0082913D0AA
:103AD00094F84100012816D0012010BD94F83E0052
:103AE0000128F9D184F83E200FE094F83F00012826
:103AF000F2D184F83F2008E094F840000128EBD18F
:103B000084F8402001E084F841200122206800F080
:103B1000DDFD12492068884203D1426C42F4004224
:103B20004264206888420ED0B0F1804F0BD00C491F
:103B3000884208D00B49884205D00B49884202D000
:103B40000A49884204D1816801F00701062903D09F
:103B5000016841F001010160002010BD000001403A
:103B60000004004000080040000C004000400140FC
:103B7000FEE701684A69D24352050FD46FF48062B0
:103B80004A61002140F8301F20224273817302698C
:103B900042F0040202610173012070470020704767
:103BA0002DE9F84F0446C06A1E4693460D4621682B
:103BB0000A6842F480620A60082807D0012805D00C
:103BC00010F5803F02D0206B112804D120680168D5
:103BD00041F4807101604FF001195B4600224946B3
:103BE0002046009600F0C6F84FF4007840B12068F7
:103BF0000068C00501D5C4F840800320BDE8F88FF7
:103C00002069DFF884A0B0F5804F0FD0062021682E
:103C100000EAD51747F0F000086133465A460AF12A
:103C20000601204600F0DAF858BB03E0E8B240F0A5
:103C300001001CE02168E8B2086133465A4651464B
:103C4000204600F0CBF8E0B9206841698169009115
:103C5000016841F4807101605B46002249462046BC
:103C6000009600F087F80028C1D147F0F1002168E4
:103C7000086133465A465146204600F0AFF8002806
:103C8000BCD00120BAE7000002000100F8B50446EC
:103C9000C06A1E460D461746082807D0012805D0E1
:103CA00010F5803F02D0206B122804D120680168F3
:103CB00041F480710160134600224FF0011120464B
:103CC000009600F057F840B120680068C00502D5A2
:103CD0004FF4007020640320F8BD2069B0F5804FD8
:103CE0000ED00620216800EAD51040F0F0000861EF
:103CF00033463A460B49204600F070F878B902E0A6
:103D000005F0FE0000E0E8B221680861054933468D
:103D10003A46891F204600F061F80028DCD00120D7
:103D2000F8BD00000800010070B516460D460446B7
:103D30000DE02046FFF71DFF08B1012070BD681C93
:103D400005D0FEF743FE801BA84207D835B1206896
:103D50004069C0434007ECD4002070BD002044F807
:103D6000300F20216173A073216941F0200121618E
:103D70002073E2E72DE9F0471E4690460D460446C3
:103D8000C1F30747DDF8209008E0701C06D0FEF76D
:103D90001DFEA0EB0900B0420FD876B12068012FBC
:103DA00018D0806925EA00000004000C14D000211E
:103DB0004145EAD00020BDE8F087002044F8300FEC
:103DC00020216173A073216941F0200121612073DA
:103DD0000120F0E74069E5E70121E9E72DE9F04737
:103DE0009A4691460E46044600254FF02008C1F33E
:103DF000074725E020684069C043400514D4206887
:103E0000016841F40071016021686FF480604861CD
:103E1000256384F83D8084F83E50206C40F0040017
:103E2000206484F83C501FE0B9F1FF3F08D0FEF752
:103E3000CDFDA0EB0A0149450CD8B9F1000F09D01E
:103E40002068012F13D0806926EA00000004000CCE
:103E50000BD0CFE744F8305F84F80D80A57320695C
:103E600040F02000206125730120BDE8F087406903
:103E7000EAE72DE9F041002590460E46044620274A
:103E800017E04069C043C0060CD454F8301B6FF0F3
:103E90001000486144F810596777A577206A2062BE
:103EA000257717E0FEF792FDA0EB0800B04208D896
:103EB0003EB120684169C9434906E2D40020BDE80B
:103EC000F08144F8305F6773A573206940F02000EB
:103ED000206125730120F2E770B516460D460446B1
:103EE0000DE02046FFF745FE08B1012070BD681CBB
:103EF00005D0FEF76BFD801BA84207D835B12068BE
:103F00004069C0430006ECD4002070BD002044F896
:103F1000300F20216173A073216941F020012161DC
:103F20002073E2E70449082801D0002803D1C871B2
:103F3000202000F0E1B870470000002010B50120FB
:103F400000F0B4F84FF47A70FEF73EFC022000F067
:103F5000ADF80520FEF738FC282000F0A7F8052072
:103F6000FEF732FC0C2000F0A1F80520FEF72CFC37
:103F7000802000F09BF8BDE810404FF4FA70FEF787
:103F800023BC10B504469AB010EE100A01F010FAE6
:103F900041EC100B214653EC102B6846FCF73AFA23
:103FA0000021684600F002F81AB010BD2DE9F04774
:103FB000304D00260446EE7071B301292FD12E49F1
:103FC000002000BF41F82040401C641C6428F9DB3D
:103FD00089460868FCF734FA2871264FA878083714
:103FE000391811F8011C00F049F8A97807F1040804
:103FF00008EB010010F8014C1AE0641C00F07CF89A
:10400000E878401CC0B2E870102805D1A8780121DA
:10401000401C00F033F8EE7020780028EDD1BDE8A8
:10402000F08700BF59F82400007800F065F8641CA0
:1040300028798442F6DBA978781810F8012C521EF2
:1040400012F0FF0200F8012CE9D10122414400F8EE
:10405000012C11F8012C521CD2B201F8012C2B7941
:104060009A42DCD1102200F8012C01F8016C2E716B
:10407000D5E700000000002060000020094A907091
:10408000421E012A0CD84A1E0F2A09D8064A02EB02
:104090000010084410F8110C40F0800000F006B841
:1040A0007047000000000020AE54000838B5104CE6
:1040B000627800EA020102EA0010E279114310433B
:1040C000617104F11002A07141F00403137051708A
:1040D00040F004019170D07000F084FDC820009081
:1040E000042304F1100221780248FEF7DFFE38BDF8
:1040F00000000020F001002038B5124C627800EA80
:10410000020102EA0010E27911436171104341F0AB
:10411000050304F11002A071137041F00101517008
:1041200040F00501917040F00100D07000F05AFDA0
:10413000C8200090042304F1100221780248FEF701
:10414000B5FE38BD00000020F001002070B532201F
:10415000FEF73AFB00F046FD054D4FF47A74234616
:10416000032229780348FEF7FBFC0028F7D170BD35
:1041700000000020F00100200449002002464968A8
:104180000B18401C1A760628FADB70471400002032
:1041900038B50E4C752064256268012302F8180FAB
:1041A000009512F8181C2068FEF780FE00956268E2
:1041B0000123206812F8181BFEF788FD6068017E55
:1041C0004171BDE83840FFF7D7BF00001400002060
:1041D00070B5154CDDE90456C4E90001D020087023
:1041E000616802F007009FED110A4870616803F0F2
:1041F00003008870616805F00300C870606806F00D
:104200000701017100214171C180018141818181DA
:10421000C181018280ED050AFFF7AEFF00F022F8B0
:10422000FFF7B6FF002070BD140000200000000062
:10423000F8B50B4C64250E466268012302F8180F8E
:10424000009512F8181C2068FEF730FE0095626891
:104250003346206812F8181BFEF738FDF8BD000041
:104260001400002010B50D4C606841781A2000F051
:1042700043F860688078C006010E1B2000F03CF80F
:104280006068C078C006010E1C2000F035F8606838
:104290000179BDE810406B2000F02EB8140000201A
:1042A00010B506213B20FFF7C3FF07484068018B8C
:1042B00049BAC180418B49BA0181818B49BA418198
:1042C000BDE81040FFF758BF1400002010B50621CC
:1042D0004320FFF7ADFF07484068018B49BA818151
:1042E000418B49BAC181818B49BA0182BDE8104036
:1042F000FFF742BF1400002038B5084C0223626863
:1043000002F8180F64205170009012F8181C2068F1
:10431000FEF7CCFDBDE83840FFF72EBF14000020AB
:104320007FB5002525480095019502952249039502
:1043300001604FF480314160012409020461816011
:10434000047680F820501E49C0E90A150426C6618B
:10435000C56080F830404461FDF7B2FF08B172B625
:10436000FEE707200095CDE9014069461348FDF7B7
:104370005BFE08B172B6FEE70094022469460F485E
:104380000194FDF751FE08B172B6FEE700940324D4
:1043900069460A480194FDF747FE08B172B6FEE788
:1043A000CDE9004669460548FDF73EFE002801D0EC
:1043B00072B6FEE77FBD00000020014044020020ED
:1043C0000100000F00B587B014216846FCF789F89A
:1043D00015480021026842F004020260026802F0FF
:1043E00004020592026842F080020260026802F054
:1043F00080020592026842F001020260026802F047
:1044000001020592026842F0020202600068029115
:1044100000F0020005900120CDE900016946034843
:10442000FEF7E4F907B000BD303802400008024052
:1044300010B596B000240F94109411941294139414
:104440001C2108A81494FCF74CF820216846FCF7BE
:1044500048F828482649016040F2E731C0E90114D4
:104460006321C0E9031444618461FFF7BBF908B11B
:1044700072B6FEE74FF480500F900FA91D48FFF76A
:10448000F3F908B172B6FEE71A48FFF7EBFA08B184
:1044900072B6FEE7139413A916481494FFF764F953
:1044A00008B172B6FEE76020CDE908040A940B94C7
:1044B0000C940D94002208A90E480E94FFF76CFA94
:1044C00008B172B6FEE700944FF40050CDE9044005
:1044D000029401940394694606480794FFF71AF979
:1044E00008B172B6FEE70348FFF72CFA16B010BD0C
:1044F0000000014034030020FEE7FEE730EE600AD2
:10450000B6EE002A80ED080AD0ED001A61EE802A8E
:10451000C0ED032AD0ED091A70EE211A21EE822A8D
:10452000D0ED061A42EE011AC0ED061A90ED072AE8
:10453000F4EEC21AF1EE10FA06DCB1EE422AF4EE05
:10454000C21AF1EE10FA01D280ED062AD0ED011A5E
:1045500090ED062A61EE821AC0ED041A90ED0A2A47
:1045600030EEC22A82EE013A90ED021A23EE011AD1
:1045700080ED051A80ED090A32EEA10AC0ED0A0AA3
:1045800030EE410A704780ED000A7047704770476F
:10459000FEF780BD30B593B030216846FBF7A1FF30
:1045A00014210CA8FBF79DFF1C480024016841F072
:1045B00080510160006800F0805011901848016837
:1045C00041F4404101600068022500F44040119030
:1045D0000120039010200490009506950820CDE955
:1045E00007406420CDE9090504200B906846FEF7DA
:1045F000C7FE08B172B6FEE70F20CDE90C054FF4F7
:104600008050CDE90E4003210CA81094FEF7DCFD8C
:10461000002801D072B6FEE713B030BD403802402A
:10462000007000400248016841F470010160704769
:1046300088ED00E0F0B502681D4B1E4C9F031E4D37
:104640001E4E984207D0B84205D0A04203D0A842DF
:1046500001D0B04204D122F0700C4A6842EA0C0248
:10466000984210D0B8420ED0A0420CD0A8420AD036
:10467000B04208D0124CA04205D0124CA04202D049
:10468000114CA04203D122F44074CA6822434C6901
:1046900022F08002224302608A68C2620A68826253
:1046A000984201D10969016301214161F0BD000017
:1046B000000001400004004000080040000C0040E1
:1046C00000400140004401400048014010B501F0A5
:1046D0001F030121046A99408C430462016A9A40D5
:1046E0001143016210BD10B5846842EA032224F42C
:1046F0007F440A432243826010BD826822F0700228
:104700000A4342F0070181607047000030B5026A39
:1047100022F001020262026A4368846924F0730590
:104720000C682C4322F002058A682A430A4DA842ED
:104730000BD122F00805CA6823F440732A434D695F
:1047400022F004021D438B692B4343608461496856
:104750004163026230BD00000000014030B5026AD2
:1047600022F010020262026A436884690D6824F430
:10477000E64444EA05248D6822F0200242EA05124C
:104780000B4DA8420ED1CD6822F0800242EA0512FC
:104790004D6923F4406343EA85038D6922F04002AA
:1047A00043EA85034360846149688163026230BDE6
:1047B0000000014030B5026A22F480720262036A8E
:1047C0004268C46923F4007324F073050C682C4319
:1047D0008D6843EA05230C4DA8420ED1CD6823F421
:1047E000006343EA05234D6922F4405242EA051270
:1047F0008D6923F4806342EA05124260C46149680E
:10480000C163036230BD00000000014030B5026AA0
:1048100022F480520262046A4268C3690D6823F47C
:10482000E64343EA05238D6824F4005444EA053442
:10483000064DA84204D14D6922F4804242EA851215
:104840004260C36149680164046230BD00000140F8
:1048500010B5036A046A24F001040462846924F038
:10486000F00444EA021423F00A020A43846102625B
:1048700010BD10B5036A23F0100303628369046A54
:1048800023F4704343EA023224F0A00343EA011107
:104890008261016210BDFEE703B4019841000098F7
:1048A00050EAC12018BF04204A0D18BF40F0010093
:1048B00040F2FF72B2EB515F08BF40F002000128E6
:1048C00008BF052002B070474100080218BF04204D
:1048D0000A0E18BF40F001004FF07F4232EA01019A
:1048E00008BF40F00200012808BF052070470907F3
:1048F000090E002804DB00F1E02080F80014704766
:1049000000F00F0000F1E02080F8141D7047000057
:1049100070B54FF068422DED048BF0EE408A18EE32
:10492000900AB0EE608A18EE101A02EB4003B3F161
:10493000654F3CBF02EB4102B2F1654F7DD200BF33
:10494000C0F3C753C1F3C7529A1A1B2A09DD10F0EE
:10495000004F14BF9FED830A9FED830ABDEC048BCB
:1049600070BD12F11A0F36DA11F0004F09D010F0B5
:10497000004F0CBF9FED7D0A9FED7D0ABDEC048BBF
:1049800070BD88EE889A19EE100AFFF79DFF042883
:1049900008BF00F017F918EE900AFFF795FF0546DB
:1049A00018EE100AFFF790FF044619EE100AFFF701
:1049B0008BFF042D18BF052D08D1042C18BF052C22
:1049C00004D1002804BF0220FBF7BAFDB0EE490A6B
:1049D000BDEC048B70BD4200B2EB410F3AD910F030
:1049E000004F19BFDFED630A9FED630ADFED630A35
:1049F0009FED630AB0EE481A0A46B1EE688A80F06D
:104A00000041F0EE418A10460A1A5200B2F1807F4E
:104A100034D2484010F0004FDFED5A1A9FED5A2A69
:104A20001DBFBEEE001A70EEE10A30EE420AB6EE8D
:104A3000001A08BF70EEA10A00E040E008BF30EEA7
:104A4000020AB0EE682A01EE482A08EE818AC2EE18
:104A5000081A15E011F0004F04BF9FED4C0AF0EE6C
:104A6000400AD1D010F0004F19BFDFED490A9FED89
:104A7000490ADFED490A9FED490AC5E7C8EE881AE1
:104A800021EEA11A9FED462ADFED462A41EE022AC9
:104A90009FED452A01EE222ADFED442A41EE022A4B
:104AA0009FED432ABDEC048B01EE222A21EE811AF0
:104AB00001EE020A30EE210A30EE200A70BD4FF0FE
:104AC0007F42B2EB400F28BFB2EB410F09D2F0EEAC
:104AD000480AB0EE680ABDEC048BBDE8704000F0F7
:104AE0006DB840EA01035B0008BF41F0FF410BD005
:104AF000B2EB400F08BFB2EB410F08D120F080406D
:104B000008EE900A21F0804108EE101A18E7B2EB87
:104B1000400F12BF5FEA410340F0FF4001F0004147
:104B20003FF40EAFB2EB410F12BF5FEA400200F05C
:104B3000004041F0FF413FF403AF4A0092EA4003D6
:104B40003FF5FEAE002AACBF9FED1A0A9FED1A0A90
:104B500068EE808A28EE008A18EE900A18EE101A85
:104B6000EEE60000DB0FC9BFDB0FC93FDB0F49409A
:104B7000DB0F49C00000C9BF22AAFDB90000C93F30
:104B800022AAFD390060ED3EC30ACE3700000000C6
:104B9000000049C022AA7DBA0000494022AA7D3AFD
:104BA0002DAD65BD8FB8D53D0FB511BE61C84C3E6A
:104BB000A8AAAABE0000804F0000802F30EE200A75
:104BC000704700009FED020A20EE000A70470000C7
:104BD0000000001030380A2801D201207047002060
:104BE0007047000070B52A2212491348FBF747FCB2
:104BF000104C608D104D6885E06AE862206B286378
:104C0000092204F1340105F13400FBF738FC94F873
:104C10003D0085F83D0094F83E0085F83E00206C8C
:104C20002864606C6864A06CA864E06CE864206D23
:104C3000286570BD8C020020F00100202DED0C8B4A
:104C400082B0FEF72FFAFFF7A5FCFFF7BBFBA748E2
:104C50000024016841F4800101600068224600F4EC
:104C60008000009021463820FEF77CFA3820FEF7BD
:104C70006BFAFFF755FB9F489D499F4E0160C0E9C5
:104C800001640D14C0E9034544618461C461046298
:104C9000FDF7A2FE08B172B6FEE796489749543078
:104CA0000160C0E90164C0E9034544618461C461F5
:104CB0000462FDF791FE08B172B6FEE7FFF7B8FB9C
:104CC0000320CDE900048E4903460022A1F1AC0087
:104CD000FFF77EFA8A4800215838FEF7F1FE88492E
:104CE00004221039A1F59C70FDF76AFBFFF72EFA3C
:104CF000FFF724F90820FFF715F9FFF7E7FAFFF7A8
:104D0000CFFA7F4DB5F90A0000EE100AB5F9080098
:104D1000F8EEC00A00EE100AB8EEC00AFFF7F8FD80
:104D20009FED788A20EE080ADFED778A774CC0EE97
:104D3000280AC4ED060AFDF749FE9FED75AB9FED0D
:104D4000769ADFED769A9FED76CA9FED76DADFED03
:104D500076CAA5F1100640F2FF379FED74BBA5F1AE
:104D60005808E061FFF79CFAFFF7B0FAFDF72EFE56
:104D7000E169401A00F0B4FA53EC1A2B00F058F92C
:104D800000F024F9A062FDF721FEE061B5F90C0006
:104D900094ED0A1A00EE100AB8EEC00AC0EE090A35
:104DA00094ED060A00EE810A84ED060AB5F90A00C0
:104DB00000EE100AB5F90800F8EEC00A00EE100A7D
:104DC000B8EEC00AFFF7A4FD60EE080A80EEA80A5C
:104DD00084ED0B0AD4ED060A60EEA90A40EE0C0A37
:104DE000C4ED060AB1EE600A84ED020A3068642858
:104DF00000D2002000EE100A3946F8EE400AB0EE6C
:104E00004D0AC4ED010AFCEEE00A10EE900A00F033
:104E1000A3F830EE6C0A84ED000A7068322800D2E4
:104E2000002000EE100A3946F8EE400AB0EE080AFB
:104E3000C4ED040AFCEEE00A10EE900A00F08CF8D3
:104E40002F4884ED030A2030FFF79DFBFDF7BEFDE0
:104E5000216A401A00F044FA53EC1B2B00F0E8F8EA
:104E600000F0B4F86062FDF7B1FD2062244894EDD3
:104E7000091AD4ED020A94ED000A2030FFF73EFB38
:104E8000BCEEC00A10EE100A2063642801D3632030
:104E900020630146D8F80000416301210846FFF76E
:104EA000EDF894ED000A23A0FFF76BF8082101202C
:104EB000FFF7E4F894ED030A20A0FFF762F8012160
:104EC0000220FFF7DBF894ED050A1EA0FFF759F862
:104ED00008210220FFF7D2F894ED020A1BA0FFF789
:104EE00050F81420FDF770FC3CE700003038024019
:104EF000005400408C020020A086010000580040B1
:104F00008C03002000003443DB0F49401C000020CC
:104F10000000000080842E413333834148E17A3F12
:104F20000AD7A33C0000C842000070420000000005
:104F300000408F40533A252E32660000503A252E0D
:104F400032660000493A252E32660000413A252E8D
:104F5000326620200000000000EE900AF8EE600AA1
:104F600060EE800A00EE101AB8EE401A80EE810A58
:104F70007047000010B500290AD00878002807D033
:104F800005487844FCF702FB002801D0002010BD42
:104F90000248784410BD00008A0600008206000026
:104FA00010B500290AD00878002807D005487844B1
:104FB000FCF7ECFA002801D0002010BD024878442C
:104FC00010BD00007A0600007206000021F00042C9
:104FD000A2F16052B2F5801F01F0004328BFD2F168
:104FE0007F6C0BD95FEA001C43EAC20242EB5070AF
:104FF00018BF704728BF20F001007047B2F5801F2E
:10500000BCBF184670474FEA410C1CF5001F02D286
:10501000084600F043BA70B500F075F90000008949
:10502000FFF7F6BF4FF00040A0F58000704700008A
:105030002DE9C04130B4DFF8A0C23CEA111418BF1A
:105040003CEA131400F0EC8081EA03051CEA111419
:1050500044EAD57418BF1CEA131500F0C780A4EB0E
:1050600005044FF0004545EAC12145EAC32341EA62
:10507000505143EA525304F17F74994204F50034CD
:105080004FEAC0204FEAC22208BF904200F09C8045
:105090004FEA13650FF24016765D4FEA134506FBA3
:1050A00005F7C7F1807706FB07F74FEAD737A7FB6D
:1050B00003687642C8F58038A7FB06CE38BFA8F152
:1050C000010807FB08E64FF0000EA6FB028CE6FB8A
:1050D00003CEDCF1000CCEF1004E38BFAEF1010E74
:1050E000A6FB0C584FF000074FF00005E6FB0E87BB
:1050F000A1FB08C6A0FB07CE16EB0E0645F1000586
:10510000E1FB076515F1E04E7EBFA4F580345FEA50
:1051100046066D4116F1800745F100054FEA172755
:105120004FEA066647EA0567A6F1DE46B6F1805FFC
:105130004FEA15251FD9384624F0010C05EBC47140
:10514000BCF1FE6F01EB0C1102D8F0BCBDE8008190
:1051500024425CBF01F5801E9EEAC47F02D4F0BCED
:10516000BDE80081244238D4F0BCA1F1C041BDE8C3
:10517000004100F016B94FEAD22242EA43524FEA08
:10518000D323A7FB02864FEAD02040EA415007FB19
:1051900003661EEA0E0F4FEAD12105FB026658BFD7
:1051A000A6EB0056B6EB00564FEA520E4EEAC37E0F
:1051B00018EB0E0E56EB530EBDD518EB02085E41F0
:1051C0007F1C55F10005B6E74FF480154FF000073E
:1051D0004FF000064FF00008ADE7F0BC4FF00000C4
:1051E00001F1C04101F00041BDE8008111EA0C1F4E
:1051F0000CEA131500D00CE013EA0C1F00F0258018
:105200004FF00000F0BC81EA030101F00041BDE86D
:105210000081F0BCBDE8004181EA030100F0C1B8A3
:10522000F0BCBDE8004170B500F06DF8097EFC3EB1
:1052300000F007B881EA03014FF0000001F00041DF
:10524000704781EA030100F0ACB8F0BCBDE8004152
:105250004FF0000021497047FFFDFBF9F7F5F4F22C
:10526000F0EEEDEBE9E8E6E4E3E1E0DEDDDBDAD801
:10527000D7D5D4D3D1D0CFCDCCCBCAC8C7C6C5C45F
:10528000C2C1C0BFBEBDBCBBBAB9B8B7B6B5B4B376
:10529000B2B1B0AFAEADACABAAA9A8A8A7A6A5A461
:1052A000A3A3A2A1A09F9F9E9D9C9C9B9A99999825
:1052B0009797969595949393929191908F8F8E8EC8
:1052C0008D8C8C8B8B8A8989888887878685858455
:1052D00084838382828181800000FF070000F87F41
:1052E000B0FA80F310FA03F10AD0C3F11D0303F5FD
:1052F00080634FEA41504FEA035202EBD1217047DD
:105300004FF0000070470EF1020E2EF0030E5EF813
:10531000046B364205D4012A43EB030515F5001F43
:1053200012D8012841EB010C1CF5001F0CD80ED13E
:105330004FEAD17C15F5001F0CEB4C0C0CF1020C64
:1053400008BF4CEBD37C04E04FF0080C01E04FEABF
:10535000D37C0CEB4C0526FA05F606F00706B6F1F1
:10536000040C06D20EEB860CBDE870404CF0010C2C
:105370006047DFE80CF0090B02024FF000414FF0EC
:105380000000A1F5002170BD19461046012851EB1F
:10539000010418BFD4F5001484BF002001F00041BF
:1053A00070BD0808A0F500114FEA310170470000F8
:1053B00043004FEAD30C4FEA3C0C43401FBF400769
:1053C0000CF1605113F0FE4F70471CF0006F03D1D9
:1053D00000200CF0004170470CF0004343EA50708D
:1053E00010B540EACC0000F00EF800BF00000092BB
:1053F0004FEA0001FFF7D5BF4FF000414FF000002A
:10540000A1F5002170470EF1020E2EF0030E5EF89A
:10541000044B244204D44FEA4102B2F17F4F11D829
:105420004FEA4003B3F17F4F0CD80ED14FEAD07C46
:10543000B2F17F4F0CEB4C0C0CF1020C08BF4CEBA3
:10544000D17C04E04FF0080C01E04FEAD17C0CEB7A
:105450004C0324FA03F404F00704B4F1040C06D25C
:105460000EEB840CBDE810404CF0010C6047DFE807
:105470000CF0070802024FF00040A0F5800010BDBC
:105480000846420018BFD2F1807288BF00F0004089
:1054900010BD4FF04070E1EE100A7047FF2141EA65
:1054A000D050C0057047FBF77EBCFBF7B3BD0001D1
:1054B00002030405060708090A0B0C0D0E0F4041F4
:1054C00042434445464748494A4B4C4D4E4F0006DF
:1054D0001016000610160000000000000000010277
:1054E000030406070809000000000102030400008D
:1054F0000000000000000000303132333435363710
:105500003839414243444546403058003031323307
:105510003435363738396162636465664030780007
:10552000040000080000000000000002000100006C
:10553000103031323334353637383961626364655F
:10554000667870003031323334353637383941427D
:10555000434445465850000002400000000000A0AF
:105560000000000005400000000000C8000000002E
:105570000C4000000000409C0000000019400000AA
:105580000020BCBE0000000034400000BFC91B8EDC
:1055900000000004B5400000504BCFD06607E2CFBA
:1055A000010000006C4100003E8251AADFEEA734EA
:1055B00001000000D9420000DCB5A0E23A301F979C
:1055C000FFFFFFFFB4450000FD25A0C8E9A3C14FC0
:1055D000FFFFFFFFFF3F0000000000800000000011
:1055E000FF3F000000000080000000003857000866
:1055F0000000002060000000D40100089857000857
:105600006000002038640000F00100081C00000069
:1056100043000000F8FFFFFF0C0000000E00000038
:105620000F0000002E0000001001000043000000E9
:10563000F8FFFFFF004040404040404040404141B3
:105640004141414040404040404040404040404057
:1056500040404040400502020202020202020202F1
:1056600002020202022020202020202020202002EE
:10567000020202020202909090909090101010107E
:10568000101010101010101010101010101010101A
:1056900002020202020288888888888808080808AE
:1056A000080808080808080808080808080808087A
:1056B00002020202400000000000000000000000A2
:1056C00000000000000000000000000000000000DA
:1056D00000000000000000000000000000000000CA
:1056E00000000000000000000000000000000000BA
:1056F00000000000000000000000000000000000AA
:105700000000000000000000000000000000000099
:105710000000000000000000000000000000000089
:105720000000000000000000000000000000000079
:1057300000000000000000004EF00100000000002A
:105740001010101000000000000000000000000019
:105750000000000000000000000000000000000049
:1057600000000000000000006666A63F0000000088
:105770000000000000000000000000000000000029
:105780000000000000000000010000001000000008
:08579000000000000024F400F9
:040000050800019955
:00000001FF
